{"abi":[{"type":"constructor","inputs":[{"name":"_sponsorDAO","type":"address","internalType":"address"}],"stateMutability":"nonpayable"},{"type":"function","name":"DEFAULT_ADMIN_ROLE","inputs":[],"outputs":[{"name":"","type":"bytes32","internalType":"bytes32"}],"stateMutability":"view"},{"type":"function","name":"VALIDATOR_ROLE","inputs":[],"outputs":[{"name":"","type":"bytes32","internalType":"bytes32"}],"stateMutability":"view"},{"type":"function","name":"getRoleAdmin","inputs":[{"name":"role","type":"bytes32","internalType":"bytes32"}],"outputs":[{"name":"","type":"bytes32","internalType":"bytes32"}],"stateMutability":"view"},{"type":"function","name":"grantRole","inputs":[{"name":"role","type":"bytes32","internalType":"bytes32"},{"name":"account","type":"address","internalType":"address"}],"outputs":[],"stateMutability":"nonpayable"},{"type":"function","name":"hasRole","inputs":[{"name":"role","type":"bytes32","internalType":"bytes32"},{"name":"account","type":"address","internalType":"address"}],"outputs":[{"name":"","type":"bool","internalType":"bool"}],"stateMutability":"view"},{"type":"function","name":"owner","inputs":[],"outputs":[{"name":"","type":"address","internalType":"address"}],"stateMutability":"view"},{"type":"function","name":"renounceOwnership","inputs":[],"outputs":[],"stateMutability":"nonpayable"},{"type":"function","name":"renounceRole","inputs":[{"name":"role","type":"bytes32","internalType":"bytes32"},{"name":"callerConfirmation","type":"address","internalType":"address"}],"outputs":[],"stateMutability":"nonpayable"},{"type":"function","name":"revokeRole","inputs":[{"name":"role","type":"bytes32","internalType":"bytes32"},{"name":"account","type":"address","internalType":"address"}],"outputs":[],"stateMutability":"nonpayable"},{"type":"function","name":"sponsorDAO","inputs":[],"outputs":[{"name":"","type":"address","internalType":"contract SponsorDAO"}],"stateMutability":"view"},{"type":"function","name":"submitAnswer","inputs":[{"name":"challengeId","type":"uint256","internalType":"uint256"},{"name":"submittedAnswerHash","type":"bytes32","internalType":"bytes32"},{"name":"correctAnswerHash","type":"bytes32","internalType":"bytes32"},{"name":"participant","type":"address","internalType":"address"}],"outputs":[],"stateMutability":"nonpayable"},{"type":"function","name":"supportsInterface","inputs":[{"name":"interfaceId","type":"bytes4","internalType":"bytes4"}],"outputs":[{"name":"","type":"bool","internalType":"bool"}],"stateMutability":"view"},{"type":"function","name":"transferOwnership","inputs":[{"name":"newOwner","type":"address","internalType":"address"}],"outputs":[],"stateMutability":"nonpayable"},{"type":"function","name":"validated","inputs":[{"name":"","type":"uint256","internalType":"uint256"}],"outputs":[{"name":"","type":"bool","internalType":"bool"}],"stateMutability":"view"},{"type":"event","name":"AnswerSubmitted","inputs":[{"name":"challengeId","type":"uint256","indexed":true,"internalType":"uint256"},{"name":"participant","type":"address","indexed":true,"internalType":"address"},{"name":"isCorrect","type":"bool","indexed":false,"internalType":"bool"}],"anonymous":false},{"type":"event","name":"OwnershipTransferred","inputs":[{"name":"previousOwner","type":"address","indexed":true,"internalType":"address"},{"name":"newOwner","type":"address","indexed":true,"internalType":"address"}],"anonymous":false},{"type":"event","name":"RoleAdminChanged","inputs":[{"name":"role","type":"bytes32","indexed":true,"internalType":"bytes32"},{"name":"previousAdminRole","type":"bytes32","indexed":true,"internalType":"bytes32"},{"name":"newAdminRole","type":"bytes32","indexed":true,"internalType":"bytes32"}],"anonymous":false},{"type":"event","name":"RoleGranted","inputs":[{"name":"role","type":"bytes32","indexed":true,"internalType":"bytes32"},{"name":"account","type":"address","indexed":true,"internalType":"address"},{"name":"sender","type":"address","indexed":true,"internalType":"address"}],"anonymous":false},{"type":"event","name":"RoleRevoked","inputs":[{"name":"role","type":"bytes32","indexed":true,"internalType":"bytes32"},{"name":"account","type":"address","indexed":true,"internalType":"address"},{"name":"sender","type":"address","indexed":true,"internalType":"address"}],"anonymous":false},{"type":"event","name":"WinnerFound","inputs":[{"name":"challengeId","type":"uint256","indexed":true,"internalType":"uint256"},{"name":"winner","type":"address","indexed":true,"internalType":"address"}],"anonymous":false},{"type":"error","name":"AccessControlBadConfirmation","inputs":[]},{"type":"error","name":"AccessControlUnauthorizedAccount","inputs":[{"name":"account","type":"address","internalType":"address"},{"name":"neededRole","type":"bytes32","internalType":"bytes32"}]},{"type":"error","name":"OwnableInvalidOwner","inputs":[{"name":"owner","type":"address","internalType":"address"}]},{"type":"error","name":"OwnableUnauthorizedAccount","inputs":[{"name":"account","type":"address","internalType":"address"}]}],"bytecode":{"object":"0x60806040523461002f576100196100146100f4565b6102a0565b610021610034565b611181610716823961118190f35b61003a565b60405190565b5f80fd5b601f801991011690565b634e487b7160e01b5f52604160045260245ffd5b906100669061003e565b810190811060018060401b0382111761007e57604052565b610048565b9061009661008f610034565b928361005c565b565b5f80fd5b60018060a01b031690565b6100b09061009c565b90565b6100bc816100a7565b036100c357565b5f80fd5b905051906100d4826100b3565b565b906020828203126100ef576100ec915f016100c7565b90565b610098565b6101126118978038038061010781610083565b9283398101906100d6565b90565b90565b90565b61012f61012a61013492610115565b610118565b61009c565b90565b6101409061011b565b90565b60209181520190565b5f7f496e76616c69642053706f6e736f7244414f0000000000000000000000000000910152565b6101806012602092610143565b6101898161014c565b0190565b6101a29060208101905f818303910152610173565b90565b156101ac57565b6101b4610034565b62461bcd60e51b8152806101ca6004820161018d565b0390fd5b6101e26101dd6101e79261009c565b610118565b61009c565b90565b6101f3906101ce565b90565b6101ff906101ea565b90565b5f1b90565b9061021860018060a01b0391610202565b9181191691161790565b61022b906101ea565b90565b90565b9061024661024161024d92610222565b61022e565b8254610207565b9055565b90565b61026861026361026d92610115565b610202565b610251565b90565b6102795f610254565b90565b7f21702c8af46127c7fa207f89d0b0a8441bb32959a0ac7df790e9ab1a25c9892690565b6102da6102e1916102b03361030f565b6102d5816102ce6102c86102c35f610137565b6100a7565b916100a7565b14156101a5565b6101f6565b6002610231565b6102f36102ec610270565b3390610452565b5061030d6102ff61027c565b610307610270565b90610545565b565b6103189061031a565b565b61032390610325565b565b61032e90610330565b565b6103399061035d565b565b610344906100a7565b9052565b919061035b905f6020850194019061033b565b565b8061037861037261036d5f610137565b6100a7565b916100a7565b14610388576103869061060b565b565b6103ab6103945f610137565b5f918291631e4fbdf760e01b835260048301610348565b0390fd5b5f90565b151590565b6103c190610251565b90565b906103ce906103b8565b5f5260205260405f2090565b6103e3906101ce565b90565b6103ef906103da565b90565b906103fc906103e6565b5f5260205260405f2090565b9061041460ff91610202565b9181191691161790565b610427906103b3565b90565b90565b9061044261043d6104499261041e565b61042a565b8254610408565b9055565b5f0190565b61045a6103af565b5061046f610469828490610691565b156103b3565b5f146104f85761049760016104925f61048a600186906103c4565b0185906103f2565b61042d565b906104a06106bf565b906104dd6104d76104d17f2f8788117e7eff1d82e926ec794901d17c78024a50270940304540a733656f0d956103b8565b926103e6565b926103e6565b926104e6610034565b806104f08161044d565b0390a4600190565b50505f90565b9061050a5f1991610202565b9181191691161790565b5f1c90565b61052290610514565b90565b9061053a610535610541926103b8565b610519565b82546104fe565b9055565b9061054f826106f4565b916105678260016105618185906103c4565b01610525565b916105a461059e6105987fbd79b86ffe0ab8e8776151514217cd7cacd52c909f66475c3af44e129f0b00ff956103b8565b926103b8565b926103b8565b926105ad610034565b806105b78161044d565b0390a4565b60018060a01b031690565b6105d36105d891610514565b6105bc565b90565b6105e590546105c7565b90565b90565b906106006105fb610607926103e6565b6105e8565b8254610207565b9055565b6106145f6105db565b61061e825f6105eb565b9061065261064c7f8be0079c531659141344cd1fd0a4f28419497f9722a3daafe3b4186f6b6457e0936103e6565b916103e6565b9161065b610034565b806106658161044d565b0390a3565b60ff1690565b61067c61068191610514565b61066a565b90565b61068e9054610670565b90565b6106b8915f6106ad6106b3936106a56103af565b5060016103c4565b016103f2565b610684565b90565b5f90565b6106c76106bb565b503390565b5f90565b90565b6106df6106e491610514565b6106d0565b90565b6106f190546106d3565b90565b600161070c610712926107056106cc565b50826103c4565b016106e7565b9056fe60806040526004361015610013575b61078f565b61001d5f356100fc565b806301ffc9a7146100f757806306873f6b146100f257806315730e6e146100ed578063248a9ca3146100e85780632f2ff15d146100e357806336568abe146100de578063715018a6146100d95780638da5cb5b146100d457806391d14854146100cf578063a217fddf146100ca578063bec95277146100c5578063c49baebe146100c0578063d547741f146100bb5763f2fde38b0361000e5761075c565b61070a565b6106d5565b610671565b6105a7565b610536565b610501565b6104ac565b610478565b610444565b6103e2565b61036b565b610270565b610184565b60e01c90565b60405190565b5f80fd5b5f80fd5b63ffffffff60e01b1690565b61012581610110565b0361012c57565b5f80fd5b9050359061013d8261011c565b565b9060208282031261015857610155915f01610130565b90565b61010c565b151590565b61016b9061015d565b9052565b9190610182905f60208501940190610162565b565b346101b4576101b061019f61019a36600461013f565b610797565b6101a7610102565b9182918261016f565b0390f35b610108565b5f9103126101c357565b61010c565b1c90565b60018060a01b031690565b6101e79060086101ec93026101c8565b6101cc565b90565b906101fa91546101d7565b90565b61020960025f906101ef565b90565b60018060a01b031690565b90565b61022e6102296102339261020c565b610217565b61020c565b90565b61023f9061021a565b90565b61024b90610236565b90565b61025790610242565b9052565b919061026e905f6020850194019061024e565b565b346102a0576102803660046101b9565b61029c61028b6101fd565b610293610102565b9182918261025b565b0390f35b610108565b90565b6102b1816102a5565b036102b857565b5f80fd5b905035906102c9826102a8565b565b90565b6102d7816102cb565b036102de57565b5f80fd5b905035906102ef826102ce565b565b6102fa9061020c565b90565b610306816102f1565b0361030d57565b5f80fd5b9050359061031e826102fd565b565b60808183031261036157610336825f83016102bc565b9261035e61034784602085016102e2565b9361035581604086016102e2565b93606001610311565b90565b61010c565b5f0190565b3461039d5761038761037e366004610320565b92919091610bf4565b61038f610102565b8061039981610366565b0390f35b610108565b906020828203126103bb576103b8915f016102e2565b90565b61010c565b6103c9906102cb565b9052565b91906103e0905f602085019401906103c0565b565b346104125761040e6103fd6103f83660046103a2565b610c4c565b610405610102565b918291826103cd565b0390f35b610108565b919060408382031261043f578061043361043c925f86016102e2565b93602001610311565b90565b61010c565b346104735761045d610457366004610417565b90610c97565b610465610102565b8061046f81610366565b0390f35b610108565b346104a75761049161048b366004610417565b90610ca3565b610499610102565b806104a381610366565b0390f35b610108565b346104da576104bc3660046101b9565b6104c4610d38565b6104cc610102565b806104d681610366565b0390f35b610108565b6104e8906102f1565b9052565b91906104ff905f602085019401906104df565b565b34610531576105113660046101b9565b61052d61051c610d72565b610524610102565b918291826104ec565b0390f35b610108565b346105675761056361055261054c366004610417565b90610d9d565b61055a610102565b9182918261016f565b0390f35b610108565b90565b5f1b90565b61058861058361058d9261056c565b61056f565b6102cb565b90565b6105995f610574565b90565b6105a4610590565b90565b346105d7576105b73660046101b9565b6105d36105c261059c565b6105ca610102565b918291826103cd565b0390f35b610108565b906020828203126105f5576105f2915f016102bc565b90565b61010c565b61060e610609610613926102a5565b610217565b6102a5565b90565b90610620906105fa565b5f5260205260405f2090565b60ff1690565b61064290600861064793026101c8565b61062c565b90565b906106559154610632565b90565b61066e906106696003915f92610616565b61064a565b90565b346106a15761069d61068c6106873660046105dc565b610658565b610694610102565b9182918261016f565b0390f35b610108565b7f21702c8af46127c7fa207f89d0b0a8441bb32959a0ac7df790e9ab1a25c9892690565b6106d26106a6565b90565b34610705576106e53660046101b9565b6107016106f06106ca565b6106f8610102565b918291826103cd565b0390f35b610108565b346107395761072361071d366004610417565b90610df1565b61072b610102565b8061073581610366565b0390f35b610108565b9060208282031261075757610754915f01610311565b90565b61010c565b3461078a5761077461076f36600461073e565b610e62565b61077c610102565b8061078681610366565b0390f35b610108565b5f80fd5b5f90565b61079f610793565b50806107ba6107b4637965db0b60e01b610110565b91610110565b149081156107c7575b5090565b6107d19150610e6d565b5f6107c3565b906107f39392916107ee6107e96106a6565b610e93565b6109db565b565b5f1c90565b61080661080b916107f5565b61062c565b90565b61081890546107fa565b90565b60209181520190565b5f7f4368616c6c656e676520616c726561647920636f6d706c657465640000000000910152565b610858601b60209261081b565b61086181610824565b0190565b61087a9060208101905f81830391015261084b565b90565b1561088457565b61088c610102565b62461bcd60e51b8152806108a260048201610865565b0390fd5b6108af90610236565b90565b906108be60ff9161056f565b9181191691161790565b6108d19061015d565b90565b90565b906108ec6108e76108f3926108c8565b6108d4565b82546108b2565b9055565b610903610908916107f5565b6101cc565b90565b61091590546108f7565b90565b5f80fd5b601f801991011690565b634e487b7160e01b5f52604160045260245ffd5b906109449061091c565b810190811067ffffffffffffffff82111761095e57604052565b610926565b60e01b90565b5f91031261097357565b61010c565b610981906102a5565b9052565b9160206109a692949361099f60408201965f830190610978565b0190610162565b565b6109b0610102565b3d5f823e3d90fd5b9160206109d99294936109d260408201965f830190610978565b01906104df565b565b9190610a0f610a1591610a09610a046109fe6109f960038990610616565b61080e565b1561015d565b61087d565b926102cb565b916102cb565b1481838291610a62610a50610a4a7fe741e062b6b4247ee65c6f00e6b8f8f81a561c471498ab4eb5d3ab8cad5b6eea936105fa565b936108a6565b93610a59610102565b9182918261016f565b0390a3610a6e575b5050565b610a846001610a7f60038490610616565b6108d7565b610a96610a91600261090b565b610242565b631a43ffb682600192803b15610bef57610ac35f8094610ace610ab7610102565b97889687958694610963565b845260048401610985565b03925af18015610bea57610bbe575b50610af0610aeb600261090b565b610242565b63c814ef7f828492803b15610bb957610b1c5f8094610b27610b10610102565b97889687958694610963565b8452600484016109b8565b03925af18015610bb457610b88575b5090610b6b610b657fe7fcf3ef38662a8c9e9660d94ae995c100e07a4c1a6aa45b71c5b92fa066086f936105fa565b916108a6565b91610b74610102565b80610b7e81610366565b0390a35f80610a6a565b610ba7905f3d8111610bad575b610b9f818361093a565b810190610969565b5f610b36565b503d610b95565b6109a8565b610918565b610bdd905f3d8111610be3575b610bd5818361093a565b810190610969565b5f610add565b503d610bcb565b6109a8565b610918565b90610c009392916107d7565b565b5f90565b610c0f906102cb565b90565b90610c1c90610c06565b5f5260205260405f2090565b90565b610c37610c3c916107f5565b610c28565b90565b610c499054610c2b565b90565b6001610c64610c6a92610c5d610c02565b5082610c12565b01610c3f565b90565b90610c8891610c83610c7e82610c4c565b610e93565b610c8a565b565b90610c9491610ea7565b50565b90610ca191610c6d565b565b9080610cbe610cb8610cb3610f53565b6102f1565b916102f1565b03610ccf57610ccc91610f60565b50565b5f63334bd91960e11b815280610ce760048201610366565b0390fd5b610cf3611002565b610cfb610d25565b565b610d11610d0c610d169261056c565b610217565b61020c565b90565b610d2290610cfd565b90565b610d36610d315f610d19565b61108e565b565b610d40610ceb565b565b5f90565b60018060a01b031690565b610d5d610d62916107f5565b610d46565b90565b610d6f9054610d51565b90565b610d7a610d42565b50610d845f610d65565b90565b90610d91906108a6565b5f5260205260405f2090565b610dc4915f610db9610dbf93610db1610793565b506001610c12565b01610d87565b61080e565b90565b90610de291610ddd610dd882610c4c565b610e93565b610de4565b565b90610dee91610f60565b50565b90610dfb91610dc7565b565b610e0e90610e09611002565b610e10565b565b80610e2b610e25610e205f610d19565b6102f1565b916102f1565b14610e3b57610e399061108e565b565b610e5e610e475f610d19565b5f918291631e4fbdf760e01b8352600483016104ec565b0390fd5b610e6b90610dfd565b565b610e75610793565b50610e8f610e896301ffc9a760e01b610110565b91610110565b1490565b610ea590610e9f610f53565b90611110565b565b610eaf610793565b50610ec4610ebe828490610d9d565b1561015d565b5f14610f4d57610eec6001610ee75f610edf60018690610c12565b018590610d87565b6108d7565b90610ef5610f53565b90610f32610f2c610f267f2f8788117e7eff1d82e926ec794901d17c78024a50270940304540a733656f0d95610c06565b926108a6565b926108a6565b92610f3b610102565b80610f4581610366565b0390a4600190565b50505f90565b610f5b610d42565b503390565b610f68610793565b50610f74818390610d9d565b5f14610ffc57610f9b5f610f965f610f8e60018690610c12565b018590610d87565b6108d7565b90610fa4610f53565b90610fe1610fdb610fd57ff6391f5c32d9c69d2a47ea670b442974b53935d1edc7fd64eb21e047a839171b95610c06565b926108a6565b926108a6565b92610fea610102565b80610ff481610366565b0390a4600190565b50505f90565b61100a610d72565b61102361101d611018610f53565b6102f1565b916102f1565b0361102a57565b61104c611035610f53565b5f91829163118cdaa760e01b8352600483016104ec565b0390fd5b9061106160018060a01b039161056f565b9181191691161790565b90565b9061108361107e61108a926108a6565b61106b565b8254611050565b9055565b6110975f610d65565b6110a1825f61106e565b906110d56110cf7f8be0079c531659141344cd1fd0a4f28419497f9722a3daafe3b4186f6b6457e0936108a6565b916108a6565b916110de610102565b806110e881610366565b0390a3565b91602061110e92949361110760408201965f8301906104df565b01906103c0565b565b9061112561111f838390610d9d565b1561015d565b61112d575050565b6111475f92839263e2517d3f60e01b8452600484016110ed565b0390fdfea2646970667358221220dbcef3ab744163d92bc8459116841d2b70a2088ed75d6e2057d9b4c45f7fc4ac64736f6c634300081e0033","linkReferences":{}},"methodIdentifiers":{"DEFAULT_ADMIN_ROLE()":"a217fddf","VALIDATOR_ROLE()":"c49baebe","getRoleAdmin(bytes32)":"248a9ca3","grantRole(bytes32,address)":"2f2ff15d","hasRole(bytes32,address)":"91d14854","owner()":"8da5cb5b","renounceOwnership()":"715018a6","renounceRole(bytes32,address)":"36568abe","revokeRole(bytes32,address)":"d547741f","sponsorDAO()":"06873f6b","submitAnswer(uint256,bytes32,bytes32,address)":"15730e6e","supportsInterface(bytes4)":"01ffc9a7","transferOwnership(address)":"f2fde38b","validated(uint256)":"bec95277"},"id":34}