{"abi":[{"type":"constructor","inputs":[{"name":"_pyusd","type":"address","internalType":"contract IERC20"}],"stateMutability":"nonpayable"},{"type":"function","name":"DEFAULT_ADMIN_ROLE","inputs":[],"outputs":[{"name":"","type":"bytes32","internalType":"bytes32"}],"stateMutability":"view"},{"type":"function","name":"SPONSOR_ROLE","inputs":[],"outputs":[{"name":"","type":"bytes32","internalType":"bytes32"}],"stateMutability":"view"},{"type":"function","name":"VALIDATOR_ROLE","inputs":[],"outputs":[{"name":"","type":"bytes32","internalType":"bytes32"}],"stateMutability":"view"},{"type":"function","name":"completeChallenge","inputs":[{"name":"id","type":"uint256","internalType":"uint256"},{"name":"winner","type":"address","internalType":"address"}],"outputs":[],"stateMutability":"nonpayable"},{"type":"function","name":"createChallenge","inputs":[{"name":"stakeAmount","type":"uint256","internalType":"uint256"},{"name":"domain","type":"bytes32","internalType":"bytes32"},{"name":"metadataURI","type":"string","internalType":"string"}],"outputs":[{"name":"","type":"uint256","internalType":"uint256"}],"stateMutability":"nonpayable"},{"type":"function","name":"depositDAOFunds","inputs":[{"name":"amount","type":"uint256","internalType":"uint256"}],"outputs":[],"stateMutability":"nonpayable"},{"type":"function","name":"fundChallenge","inputs":[{"name":"id","type":"uint256","internalType":"uint256"},{"name":"amount","type":"uint256","internalType":"uint256"}],"outputs":[],"stateMutability":"nonpayable"},{"type":"function","name":"getChallengeBasicInfo","inputs":[{"name":"id","type":"uint256","internalType":"uint256"}],"outputs":[{"name":"creator","type":"address","internalType":"address"},{"name":"stakeAmount","type":"uint256","internalType":"uint256"},{"name":"totalStaked","type":"uint256","internalType":"uint256"},{"name":"startTime","type":"uint256","internalType":"uint256"},{"name":"endTime","type":"uint256","internalType":"uint256"},{"name":"active","type":"bool","internalType":"bool"},{"name":"verified","type":"bool","internalType":"bool"},{"name":"domain","type":"bytes32","internalType":"bytes32"},{"name":"metadataURI","type":"string","internalType":"string"},{"name":"participantCount","type":"uint256","internalType":"uint256"}],"stateMutability":"view"},{"type":"function","name":"getParticipants","inputs":[{"name":"id","type":"uint256","internalType":"uint256"}],"outputs":[{"name":"","type":"address[]","internalType":"address[]"}],"stateMutability":"view"},{"type":"function","name":"getRoleAdmin","inputs":[{"name":"role","type":"bytes32","internalType":"bytes32"}],"outputs":[{"name":"","type":"bytes32","internalType":"bytes32"}],"stateMutability":"view"},{"type":"function","name":"grantRole","inputs":[{"name":"role","type":"bytes32","internalType":"bytes32"},{"name":"account","type":"address","internalType":"address"}],"outputs":[],"stateMutability":"nonpayable"},{"type":"function","name":"hasRole","inputs":[{"name":"role","type":"bytes32","internalType":"bytes32"},{"name":"account","type":"address","internalType":"address"}],"outputs":[{"name":"","type":"bool","internalType":"bool"}],"stateMutability":"view"},{"type":"function","name":"owner","inputs":[],"outputs":[{"name":"","type":"address","internalType":"address"}],"stateMutability":"view"},{"type":"function","name":"pyusd","inputs":[],"outputs":[{"name":"","type":"address","internalType":"contract IERC20"}],"stateMutability":"view"},{"type":"function","name":"renounceOwnership","inputs":[],"outputs":[],"stateMutability":"nonpayable"},{"type":"function","name":"renounceRole","inputs":[{"name":"role","type":"bytes32","internalType":"bytes32"},{"name":"callerConfirmation","type":"address","internalType":"address"}],"outputs":[],"stateMutability":"nonpayable"},{"type":"function","name":"revokeRole","inputs":[{"name":"role","type":"bytes32","internalType":"bytes32"},{"name":"account","type":"address","internalType":"address"}],"outputs":[],"stateMutability":"nonpayable"},{"type":"function","name":"setValidatorDAO","inputs":[{"name":"_validatorDAO","type":"address","internalType":"address"}],"outputs":[],"stateMutability":"nonpayable"},{"type":"function","name":"submitAnswer","inputs":[{"name":"id","type":"uint256","internalType":"uint256"},{"name":"submissionURI","type":"string","internalType":"string"}],"outputs":[],"stateMutability":"nonpayable"},{"type":"function","name":"supportsInterface","inputs":[{"name":"interfaceId","type":"bytes4","internalType":"bytes4"}],"outputs":[{"name":"","type":"bool","internalType":"bool"}],"stateMutability":"view"},{"type":"function","name":"transferOwnership","inputs":[{"name":"newOwner","type":"address","internalType":"address"}],"outputs":[],"stateMutability":"nonpayable"},{"type":"function","name":"validatorDAO","inputs":[],"outputs":[{"name":"","type":"address","internalType":"address"}],"stateMutability":"view"},{"type":"function","name":"verifyChallenge","inputs":[{"name":"id","type":"uint256","internalType":"uint256"},{"name":"verified","type":"bool","internalType":"bool"}],"outputs":[],"stateMutability":"nonpayable"},{"type":"event","name":"ChallengeCompleted","inputs":[{"name":"id","type":"uint256","indexed":true,"internalType":"uint256"},{"name":"winner","type":"address","indexed":true,"internalType":"address"},{"name":"rewardAmount","type":"uint256","indexed":false,"internalType":"uint256"}],"anonymous":false},{"type":"event","name":"ChallengeCreated","inputs":[{"name":"id","type":"uint256","indexed":true,"internalType":"uint256"},{"name":"creator","type":"address","indexed":true,"internalType":"address"},{"name":"stakeAmount","type":"uint256","indexed":false,"internalType":"uint256"},{"name":"domain","type":"bytes32","indexed":false,"internalType":"bytes32"},{"name":"metadataURI","type":"string","indexed":false,"internalType":"string"},{"name":"startTime","type":"uint256","indexed":false,"internalType":"uint256"},{"name":"endTime","type":"uint256","indexed":false,"internalType":"uint256"}],"anonymous":false},{"type":"event","name":"ChallengeFunded","inputs":[{"name":"id","type":"uint256","indexed":true,"internalType":"uint256"},{"name":"participant","type":"address","indexed":true,"internalType":"address"},{"name":"amount","type":"uint256","indexed":false,"internalType":"uint256"}],"anonymous":false},{"type":"event","name":"ChallengeSubmitted","inputs":[{"name":"id","type":"uint256","indexed":true,"internalType":"uint256"},{"name":"participant","type":"address","indexed":true,"internalType":"address"},{"name":"submissionURI","type":"string","indexed":false,"internalType":"string"}],"anonymous":false},{"type":"event","name":"ChallengeVerified","inputs":[{"name":"id","type":"uint256","indexed":true,"internalType":"uint256"},{"name":"verified","type":"bool","indexed":false,"internalType":"bool"}],"anonymous":false},{"type":"event","name":"OwnershipTransferred","inputs":[{"name":"previousOwner","type":"address","indexed":true,"internalType":"address"},{"name":"newOwner","type":"address","indexed":true,"internalType":"address"}],"anonymous":false},{"type":"event","name":"RoleAdminChanged","inputs":[{"name":"role","type":"bytes32","indexed":true,"internalType":"bytes32"},{"name":"previousAdminRole","type":"bytes32","indexed":true,"internalType":"bytes32"},{"name":"newAdminRole","type":"bytes32","indexed":true,"internalType":"bytes32"}],"anonymous":false},{"type":"event","name":"RoleGranted","inputs":[{"name":"role","type":"bytes32","indexed":true,"internalType":"bytes32"},{"name":"account","type":"address","indexed":true,"internalType":"address"},{"name":"sender","type":"address","indexed":true,"internalType":"address"}],"anonymous":false},{"type":"event","name":"RoleRevoked","inputs":[{"name":"role","type":"bytes32","indexed":true,"internalType":"bytes32"},{"name":"account","type":"address","indexed":true,"internalType":"address"},{"name":"sender","type":"address","indexed":true,"internalType":"address"}],"anonymous":false},{"type":"error","name":"AccessControlBadConfirmation","inputs":[]},{"type":"error","name":"AccessControlUnauthorizedAccount","inputs":[{"name":"account","type":"address","internalType":"address"},{"name":"neededRole","type":"bytes32","internalType":"bytes32"}]},{"type":"error","name":"OwnableInvalidOwner","inputs":[{"name":"owner","type":"address","internalType":"address"}]},{"type":"error","name":"OwnableUnauthorizedAccount","inputs":[{"name":"account","type":"address","internalType":"address"}]},{"type":"error","name":"SafeERC20FailedOperation","inputs":[{"name":"token","type":"address","internalType":"address"}]}],"bytecode":{"object":"0x60a06040523461006257610019610014610133565b610314565b610021610067565b612bbf6107a082396080518181816105ef015281816117bd01528181611ab501528181611e19015281816124610152818161250801526125a90152612bbf90f35b61006d565b60405190565b5f80fd5b601f801991011690565b634e487b7160e01b5f52604160045260245ffd5b9061009990610071565b810190811060018060401b038211176100b157604052565b61007b565b906100c96100c2610067565b928361008f565b565b5f80fd5b60018060a01b031690565b6100e3906100cf565b90565b6100ef906100da565b90565b6100fb816100e6565b0361010257565b5f80fd5b90505190610113826100f2565b565b9060208282031261012e5761012b915f01610106565b90565b6100cb565b61015161335f80380380610146816100b6565b928339810190610115565b90565b5f1b90565b906101655f1991610154565b9181191691161790565b90565b90565b90565b61018c6101876101919261016f565b610175565b610172565b90565b90565b906101ac6101a76101b392610178565b610194565b8254610159565b9055565b6101cb6101c66101d0926100cf565b610175565b6100cf565b90565b6101dc906101b7565b90565b6101e8906101d3565b90565b90565b6102026101fd610207926101eb565b610175565b6100cf565b90565b610213906101ee565b90565b60209181520190565b5f7f50595553442063616e6e6f74206265207a65726f000000000000000000000000910152565b6102536014602092610216565b61025c8161021f565b0190565b6102759060208101905f818303910152610246565b90565b1561027f57565b610287610067565b62461bcd60e51b81528061029d60048201610260565b0390fd5b90565b6102b86102b36102bd926101eb565b610154565b6102a1565b90565b6102c95f6102a4565b90565b7f1597bc5e34ff090612f53164e4e642d2ab4fc78bffe19ed1b602a0d12559561a90565b7f21702c8af46127c7fa207f89d0b0a8441bb32959a0ac7df790e9ab1a25c9892690565b61031d336103a0565b61032960016003610197565b610356610335826101df565b61034f6103496103445f61020a565b6100da565b916100da565b1415610278565b60805261036b6103646102c0565b33906104d7565b506103856103776102cc565b61037f6102c0565b906105b4565b61039e6103906102f0565b6103986102c0565b906105b4565b565b6103a9906103ab565b565b6103b4906103b6565b565b6103bf906103c1565b565b6103ca906103ee565b565b6103d5906100da565b9052565b91906103ec905f602085019401906103cc565b565b806104096104036103fe5f61020a565b6100da565b916100da565b146104195761041790610695565b565b61043c6104255f61020a565b5f918291631e4fbdf760e01b8352600483016103d9565b0390fd5b5f90565b151590565b610452906102a1565b90565b9061045f90610449565b5f5260205260405f2090565b610474906101d3565b90565b906104819061046b565b5f5260205260405f2090565b9061049960ff91610154565b9181191691161790565b6104ac90610444565b90565b90565b906104c76104c26104ce926104a3565b6104af565b825461048d565b9055565b5f0190565b6104df610440565b506104f46104ee82849061071b565b15610444565b5f1461057d5761051c60016105175f61050f60018690610455565b018590610477565b6104b2565b90610525610749565b9061056261055c6105567f2f8788117e7eff1d82e926ec794901d17c78024a50270940304540a733656f0d95610449565b9261046b565b9261046b565b9261056b610067565b80610575816104d2565b0390a4600190565b50505f90565b5f1c90565b61059190610583565b90565b906105a96105a46105b092610449565b610588565b8254610159565b9055565b906105be8261077e565b916105d68260016105d0818590610455565b01610594565b9161061361060d6106077fbd79b86ffe0ab8e8776151514217cd7cacd52c909f66475c3af44e129f0b00ff95610449565b92610449565b92610449565b9261061c610067565b80610626816104d2565b0390a4565b60018060a01b031690565b61064261064791610583565b61062b565b90565b6106549054610636565b90565b9061066860018060a01b0391610154565b9181191691161790565b90565b9061068a6106856106919261046b565b610672565b8254610657565b9055565b61069e5f61064a565b6106a8825f610675565b906106dc6106d67f8be0079c531659141344cd1fd0a4f28419497f9722a3daafe3b4186f6b6457e09361046b565b9161046b565b916106e5610067565b806106ef816104d2565b0390a3565b60ff1690565b61070661070b91610583565b6106f4565b90565b61071890546106fa565b90565b610742915f61073761073d9361072f610440565b506001610455565b01610477565b61070e565b90565b5f90565b610751610745565b503390565b5f90565b90565b61076961076e91610583565b61075a565b90565b61077b905461075d565b90565b600161079661079c9261078f610756565b5082610455565b01610771565b9056fe60806040526004361015610013575b610cd9565b61001d5f3561018c565b806301fa3bec1461018757806301ffc9a7146101825780631a43ffb61461017d5780631cfdd9e814610178578063209f3c381461017357806322e669d31461016e578063248a9ca3146101695780632f2ff15d1461016457806336568abe1461015f578063715018a61461015a5780638c2eb17e146101555780638da5cb5b1461015057806391d148541461014b578063a217fddf14610146578063a44c056114610141578063c1e3bd3e1461013c578063c2d7944414610137578063c49baebe14610132578063c814ef7f1461012d578063d547741f14610128578063f2fde38b14610123578063f56855b61461011e5763fa5d97bc0361000e57610ca0565b610c05565b610ba5565b610b71565b610b3d565b610adb565b610a77565b610a13565b610941565b61090c565b61089b565b610866565b610833565b6107e2565b6107ae565b61077a565b6106f5565b61066a565b6105b8565b61050e565b61038d565b610308565b610260565b60e01c90565b60405190565b5f80fd5b5f80fd5b5f80fd5b90565b6101b0816101a4565b036101b757565b5f80fd5b905035906101c8826101a7565b565b5f80fd5b5f80fd5b5f80fd5b909182601f830112156102105781359167ffffffffffffffff831161020b57602001926001830284011161020657565b6101d2565b6101ce565b6101ca565b9190916040818403126102565761022e835f83016101bb565b92602082013567ffffffffffffffff81116102515761024d92016101d6565b9091565b6101a0565b61019c565b5f0190565b3461028f57610279610273366004610215565b91610f31565b610281610192565b8061028b8161025b565b0390f35b610198565b63ffffffff60e01b1690565b6102a981610294565b036102b057565b5f80fd5b905035906102c1826102a0565b565b906020828203126102dc576102d9915f016102b4565b90565b61019c565b151590565b6102ef906102e1565b9052565b9190610306905f602085019401906102e6565b565b346103385761033461032361031e3660046102c3565b61103b565b61032b610192565b918291826102f3565b0390f35b610198565b610346816102e1565b0361034d57565b5f80fd5b9050359061035e8261033d565b565b9190604083820312610388578061037c610385925f86016101bb565b93602001610351565b90565b61019c565b346103bc576103a66103a0366004610360565b90611224565b6103ae610192565b806103b88161025b565b0390f35b610198565b906020828203126103da576103d7915f016101bb565b90565b61019c565b60018060a01b031690565b6103f3906103df565b90565b6103ff906103ea565b9052565b61040c906101a4565b9052565b90565b61041c90610410565b9052565b5190565b60209181520190565b90825f9392825e0152565b601f801991011690565b61046161046a60209361046f9361045881610420565b93848093610424565b9586910161042d565b610438565b0190565b9a99989795939196949290966101408c01975f8d01610491916103f6565b60208c0161049e91610403565b60408b016104ab91610403565b60608a016104b891610403565b608089016104c591610403565b60a088016104d2916102e6565b60c087016104df916102e6565b60e086016104ec91610413565b8481036101008601526104fe91610442565b926101200161050c91610403565b565b3461054b576105476105296105243660046103c1565b611403565b9661053e9a989a969196959295949394610192565b9a8b9a8b610473565b0390f35b610198565b5f91031261055a57565b61019c565b1c90565b60018060a01b031690565b61057e906008610583930261055f565b610563565b90565b90610591915461056e565b90565b6105a060025f90610586565b90565b91906105b6905f602085019401906103f6565b565b346105e8576105c8366004610550565b6105e46105d3610594565b6105db610192565b918291826105a3565b0390f35b610198565b7f000000000000000000000000000000000000000000000000000000000000000090565b90565b61062861062361062d926103df565b610611565b6103df565b90565b61063990610614565b90565b61064590610630565b90565b6106519061063c565b9052565b9190610668905f60208501940190610648565b565b3461069a5761067a366004610550565b6106966106856105ed565b61068d610192565b91829182610655565b0390f35b610198565b6106a881610410565b036106af57565b5f80fd5b905035906106c08261069f565b565b906020828203126106db576106d8915f016106b3565b90565b61019c565b91906106f3905f60208501940190610413565b565b346107255761072161071061070b3660046106c2565b61151d565b610718610192565b918291826106e0565b0390f35b610198565b610733816103ea565b0361073a57565b5f80fd5b9050359061074b8261072a565b565b91906040838203126107755780610769610772925f86016106b3565b9360200161073e565b90565b61019c565b346107a95761079361078d36600461074d565b90611568565b61079b610192565b806107a58161025b565b0390f35b610198565b346107dd576107c76107c136600461074d565b90611574565b6107cf610192565b806107d98161025b565b0390f35b610198565b34610810576107f2366004610550565b6107fa611609565b610802610192565b8061080c8161025b565b0390f35b610198565b9060208282031261082e5761082b915f0161073e565b90565b61019c565b346108615761084b610846366004610815565b611679565b610853610192565b8061085d8161025b565b0390f35b610198565b3461089657610876366004610550565b610892610881611684565b610889610192565b918291826105a3565b0390f35b610198565b346108cc576108c86108b76108b136600461074d565b906116d0565b6108bf610192565b918291826102f3565b0390f35b610198565b90565b5f1b90565b6108ed6108e86108f2926108d1565b6108d4565b610410565b90565b6108fe5f6108d9565b90565b6109096108f5565b90565b3461093c5761091c366004610550565b610938610927610901565b61092f610192565b918291826106e0565b0390f35b610198565b3461096f576109596109543660046103c1565b6117f0565b610961610192565b8061096b8161025b565b0390f35b610198565b5190565b60209181520190565b60200190565b610990906103ea565b9052565b906109a181602093610987565b0190565b60200190565b906109c86109c26109bb84610974565b8093610978565b92610981565b905f5b8181106109d85750505090565b9091926109f16109eb6001928651610994565b946109a5565b91019190916109cb565b610a109160208201915f8184039101526109ab565b90565b34610a4357610a3f610a2e610a293660046103c1565b6118ae565b610a36610192565b918291826109fb565b0390f35b610198565b7f1597bc5e34ff090612f53164e4e642d2ab4fc78bffe19ed1b602a0d12559561a90565b610a74610a48565b90565b34610aa757610a87366004610550565b610aa3610a92610a6c565b610a9a610192565b918291826106e0565b0390f35b610198565b7f21702c8af46127c7fa207f89d0b0a8441bb32959a0ac7df790e9ab1a25c9892690565b610ad8610aac565b90565b34610b0b57610aeb366004610550565b610b07610af6610ad0565b610afe610192565b918291826106e0565b0390f35b610198565b9190604083820312610b385780610b2c610b35925f86016101bb565b9360200161073e565b90565b61019c565b34610b6c57610b56610b50366004610b10565b90611b3c565b610b5e610192565b80610b688161025b565b0390f35b610198565b34610ba057610b8a610b8436600461074d565b90611b72565b610b92610192565b80610b9c8161025b565b0390f35b610198565b34610bd357610bbd610bb8366004610815565b611be3565b610bc5610192565b80610bcf8161025b565b0390f35b610198565b9190604083820312610c005780610bf4610bfd925f86016101bb565b936020016101bb565b90565b61019c565b34610c3457610c1e610c18366004610bd8565b90611d9f565b610c26610192565b80610c308161025b565b0390f35b610198565b91606083830312610c8657610c50825f85016101bb565b92610c5e83602083016106b3565b92604082013567ffffffffffffffff8111610c8157610c7d92016101d6565b9091565b6101a0565b61019c565b9190610c9e905f60208501940190610403565b565b34610cd457610cd0610cbf610cb6366004610c39565b9291909161266c565b610cc7610192565b91829182610c8b565b0390f35b610198565b5f80fd5b610cf1610cec610cf6926101a4565b610611565b6101a4565b90565b90610d0390610cdd565b5f5260205260405f2090565b90565b60a01c90565b60ff1690565b610d2a610d2f91610d12565b610d18565b90565b610d3c9054610d1e565b90565b5f7f4368616c6c656e6765206e6f7420616374697665000000000000000000000000910152565b610d736014602092610424565b610d7c81610d3f565b0190565b610d959060208101905f818303910152610d66565b90565b15610d9f57565b610da7610192565b62461bcd60e51b815280610dbd60048201610d80565b0390fd5b610dd5610dd0610dda926108d1565b610611565b6101a4565b90565b6001610de991016101a4565b90565b5490565b634e487b7160e01b5f52603260045260245ffd5b5f5260205f2090565b610e1681610dec565b821015610e3057610e28600191610e04565b910201905f90565b610df0565b60207f7377657200000000000000000000000000000000000000000000000000000000917f4d7573742066756e64206368616c6c656e676520746f207375626d697420616e5f8201520152565b610e8f6024604092610424565b610e9881610e35565b0190565b610eb19060208101905f818303910152610e82565b90565b15610ebb57565b610ec3610192565b62461bcd60e51b815280610ed960048201610e9c565b0390fd5b610ee690610630565b90565b90825f939282370152565b9190610f0e81610f0781610f1395610424565b8095610ee9565b610438565b0190565b9091610f2e9260208301925f818503910152610ef4565b90565b9190610f47610f4260048590610cf9565b610d0f565b92610f5c610f5760078601610d32565b610d98565b5f93610f675f610dc1565b5b80610f86610f80610f7b60068601610dec565b6101a4565b916101a4565b101561102957610fa3610f9d600684018390610e0d565b90610586565b610fb5610faf336103ea565b916103ea565b14610fc857610fc390610ddd565b610f68565b505090919250610fd960015b610eb4565b33919261100f6110097fe883cc6f1d8a8eb0d285e69f470b48d71c9d127e99ea0ad50f1b343d6badf67193610cdd565b93610edd565b9361102461101b610192565b92839283610f17565b0390a3565b5050909192610fd990610fd4565b5f90565b611043611037565b508061105e611058637965db0b60e01b610294565b91610294565b1490811561106b575b5090565b6110759150612683565b5f611067565b906110959161109061108b610aac565b6126a9565b61118e565b565b60a81c90565b6110a96110ae91611097565b610d18565b90565b6110bb905461109d565b90565b5f7f416c726561647920766572696669656400000000000000000000000000000000910152565b6110f26010602092610424565b6110fb816110be565b0190565b6111149060208101905f8183039101526110e5565b90565b1561111e57565b611126610192565b62461bcd60e51b81528061113c600482016110ff565b0390fd5b60a81b90565b9061115560ff60a81b91611140565b9181191691161790565b611168906102e1565b90565b90565b9061118361117e61118a9261115f565b61116b565b8254611146565b9055565b6111e06111a56111a060048490610cf9565b610d0f565b6111b96111b460078301610d32565b610d98565b6111d66111d16111cb600784016110b1565b156102e1565b611117565b600784910161116e565b61121f61120d7f2ae00b025353dc5a10bc4a77208a0235fdbc14fd537e94a755676a26ec188ddc92610cdd565b92611216610192565b918291826102f3565b0390a2565b9061122e9161107b565b565b5f90565b5f90565b5f90565b606090565b5f1c90565b61125261125791611241565b610563565b90565b6112649054611246565b90565b90565b61127661127b91611241565b611267565b90565b611288905461126a565b90565b90565b61129a61129f91611241565b61128b565b90565b6112ac905461128e565b90565b634e487b7160e01b5f52602260045260245ffd5b90600160028304921680156112e3575b60208310146112de57565b6112af565b91607f16916112d3565b60209181520190565b5f5260205f2090565b905f9291805490611319611312836112c3565b80946112ed565b916001811690815f146113705750600114611334575b505050565b61134191929394506112f6565b915f925b81841061135857505001905f808061132f565b60018160209295939554848601520191019290611345565b92949550505060ff19168252151560200201905f808061132f565b90611395916112ff565b90565b634e487b7160e01b5f52604160045260245ffd5b906113b690610438565b810190811067ffffffffffffffff8211176113d057604052565b611398565b906113f56113ee926113e5610192565b9384809261138b565b03836113ac565b565b611400906113d5565b90565b61146b61147091611412611230565b5061141b611234565b50611424611234565b5061142d611234565b50611436611234565b5061143f611037565b50611448611037565b50611451611238565b5061145a61123c565b50611463611234565b506004610cf9565b610d0f565b61147b5f820161125a565b6114876002830161127e565b926114946003840161127e565b926114a16004820161127e565b926114ae6005830161127e565b926114bb60078401610d32565b926114c8600782016110b1565b926114d5600883016112a2565b926114f76114e96006600986019501610dec565b929a999897969594936113f7565b9190565b61150490610410565b90565b90611511906114fb565b5f5260205260405f2090565b600161153561153b9261152e611238565b5082611507565b016112a2565b90565b906115599161155461154f8261151d565b6126a9565b61155b565b565b90611565916126f3565b50565b906115729161153e565b565b908061158f61158961158461279f565b6103ea565b916103ea565b036115a05761159d916127ac565b50565b5f63334bd91960e11b8152806115b86004820161025b565b0390fd5b6115c461284e565b6115cc6115f6565b565b6115e26115dd6115e7926108d1565b610611565b6103df565b90565b6115f3906115ce565b90565b6116076116025f6115ea565b61289c565b565b6116116115bc565b565b61162c906116276116226108f5565b6126a9565b61166c565b565b9061163f60018060a01b03916108d4565b9181191691161790565b90565b9061166161165c61166892610edd565b611649565b825461162e565b9055565b61167790600261164c565b565b61168290611613565b565b61168c611230565b506116965f61125a565b90565b906116a390610edd565b5f5260205260405f2090565b6116bb6116c091611241565b610d18565b90565b6116cd90546116af565b90565b6116f7915f6116ec6116f2936116e4611037565b506001611507565b01611699565b6116c3565b90565b61170b9061170661284e565b61179b565b565b5f7f416d6f756e74206d757374206265203e20300000000000000000000000000000910152565b6117416012602092610424565b61174a8161170d565b0190565b6117639060208101905f818303910152611734565b90565b1561176d57565b611775610192565b62461bcd60e51b81528061178b6004820161174e565b0390fd5b61179890610630565b90565b6117ee906117bb816117b56117af5f610dc1565b916101a4565b11611766565b7f000000000000000000000000000000000000000000000000000000000000000090336117e73061178f565b9192612952565b565b6117f9906116fa565b565b606090565b60209181520190565b6118139054611246565b90565b60010190565b9061183961183361182c84610dec565b8093611800565b92610e04565b905f5b8181106118495750505090565b90919261186961186360019261185e87611809565b610994565b94611816565b910191909161183c565b9061187d9161181c565b90565b906118a061189992611890610192565b93848092611873565b03836113ac565b565b6118ab90611880565b90565b60066118c76118cd926118bf6117fb565b506004610cf9565b016118a2565b90565b906118ea916118e56118e0610aac565b6126a9565b611a2f565b565b5f7f4368616c6c656e6765206e6f7420766572696669656400000000000000000000910152565b6119206016602092610424565b611929816118ec565b0190565b6119429060208101905f818303910152611913565b90565b1561194c57565b611954610192565b62461bcd60e51b81528061196a6004820161192d565b0390fd5b5f7f57696e6e65722063616e6e6f74206265207a65726f0000000000000000000000910152565b6119a26015602092610424565b6119ab8161196e565b0190565b6119c49060208101905f818303910152611995565b90565b156119ce57565b6119d6610192565b62461bcd60e51b8152806119ec600482016119af565b0390fd5b60a01b90565b90611a0560ff60a01b916119f0565b9181191691161790565b90611a24611a1f611a2b9261115f565b61116b565b82546119f6565b9055565b611aee6003611a48611a4360048590610cf9565b610d0f565b92611a5d611a5860078601610d32565b610d98565b611a71611a6c600786016110b1565b611945565b611a9685611a8f611a89611a845f6115ea565b6103ea565b916103ea565b14156119c7565b611aa35f60078601611a0f565b611ab0856007860161164c565b611ae67f000000000000000000000000000000000000000000000000000000000000000086611ae085880161127e565b916129c5565b93920161127e565b91611b37611b25611b1f7f7932c06b29830891dfe02481815d0c11164579bbfcfb919d73741acb1bb6292b93610cdd565b93610edd565b93611b2e610192565b91829182610c8b565b0390a3565b90611b46916118d0565b565b90611b6391611b5e611b598261151d565b6126a9565b611b65565b565b90611b6f916127ac565b50565b90611b7c91611b48565b565b611b8f90611b8a61284e565b611b91565b565b80611bac611ba6611ba15f6115ea565b6103ea565b916103ea565b14611bbc57611bba9061289c565b565b611bdf611bc85f6115ea565b5f918291631e4fbdf760e01b8352600483016105a3565b0390fd5b611bec90611b7e565b565b5f7f4f757473696465206368616c6c656e676520706572696f640000000000000000910152565b611c226018602092610424565b611c2b81611bee565b0190565b611c449060208101905f818303910152611c15565b90565b15611c4e57565b611c56610192565b62461bcd60e51b815280611c6c60048201611c2f565b0390fd5b634e487b7160e01b5f52601160045260245ffd5b611c93611c99919392936101a4565b926101a4565b8201809211611ca457565b611c70565b90611cb55f19916108d4565b9181191691161790565b90565b90611cd7611cd2611cde92610cdd565b611cbf565b8254611ca9565b9055565b90565b5f5260205f2090565b5490565b611cfb81611cee565b821015611d1557611d0d600191611ce5565b910201905f90565b610df0565b1b90565b91906008611d3e910291611d3860018060a01b0384611d1a565b92611d1a565b9181191691161790565b9190611d5e611d59611d6693610edd565b611649565b908354611d1e565b9055565b9081549168010000000000000000831015611d9a5782611d92916001611d9895018155611cf2565b90611d48565b565b611398565b90611dbc81611db6611db05f610dc1565b916101a4565b11611766565b611dd0611dcb60048490610cf9565b610d0f565b91611de5611de060078501610d32565b610d98565b42611e03611dfd611df86004870161127e565b6101a4565b916101a4565b101580611f6e575b611e1490611c47565b611e4a7f000000000000000000000000000000000000000000000000000000000000000033611e423061178f565b908592612952565b611e6a82611e646003860191611e5f8361127e565b611c84565b90611cc2565b611e72611037565b92611e7c5f610dc1565b5b80611e9b611e95611e9060068601610dec565b6101a4565b916101a4565b1015611f6157611eb8611eb2600684018390610e0d565b90610586565b611eca611ec4336103ea565b916103ea565b14611edd57611ed890610ddd565b611e7d565b5090919250611eee60015b156102e1565b611f45575b5090339091611f40611f2e611f287f418ee751ce8c59675d284322634b9adda175103fb10dc0284b5dbc3300b44ceb93610cdd565b93610edd565b93611f37610192565b91829182610c8b565b0390a3565b611f546006611f5b9201611ce2565b3390611d6a565b5f611ef3565b50909192611eee90611ee8565b50611e1442611f90611f8a611f856005880161127e565b6101a4565b916101a4565b11159050611e0b565b90611fb694939291611fb1611fac610a48565b6126a9565b6123f0565b90565b5f7f5374616b65206d757374206265203e2030000000000000000000000000000000910152565b611fed6011602092610424565b611ff681611fb9565b0190565b61200f9060208101905f818303910152611fe0565b90565b1561201957565b612021610192565b62461bcd60e51b81528061203760048201611ffa565b0390fd5b90565b61205261204d6120579261203b565b610611565b6101a4565b90565b634e487b7160e01b5f52601260045260245ffd5b61207a612080916101a4565b916101a4565b90811561208b570490565b61205a565b60e01b90565b905051906120a3826101a7565b565b906020828203126120be576120bb915f01612096565b90565b61019c565b6120cb610192565b3d5f823e3d90fd5b5f7f44414f206c61636b7320505955534420666f722031302520626f6e7573000000910152565b612107601d602092610424565b612110816120d3565b0190565b6121299060208101905f8183039101526120fa565b90565b1561213357565b61213b610192565b62461bcd60e51b81528061215160048201612114565b0390fd5b61215e90610614565b90565b61216a90612155565b90565b90565b9061218561218061218c92612161565b61216d565b825461162e565b9055565b61219990611241565b90565b906121b16121ac6121b8926114fb565b612190565b8254611ca9565b9055565b5090565b601f602091010490565b919060086121e59102916121df5f1984611d1a565b92611d1a565b9181191691161790565b919061220561220061220d93610cdd565b611cbf565b9083546121ca565b9055565b6122239161221d611234565b916121ef565b565b5b818110612231575050565b8061223e5f600193612211565b01612226565b9190601f8111612254575b505050565b612260612285936112f6565b90602061226c846121c0565b8301931061228d575b61227e906121c0565b0190612225565b5f808061224f565b915061227e81929050612275565b906122ab905f199060080261055f565b191690565b816122ba9161229b565b906002021790565b916122cd90826121bc565b9067ffffffffffffffff821161238c576122f1826122eb85546112c3565b85612244565b5f90601f831160011461232457918091612313935f92612318575b50506122b0565b90555b565b90915001355f8061230c565b601f19831691612333856112f6565b925f5b8181106123745750916002939185600196941061235a575b50505002019055612316565b61236a910135601f84169061229b565b90555f808061234e565b91936020600181928787013581550195019201612336565b611398565b9061239c92916122c2565b565b916123e7916123ee969897956080956123cf6123dc946123c560a08901955f8a0190610403565b6020880190610413565b8583036040870152610ef4565b966060830190610403565b0190610403565b565b939293919091506124138261240d6124075f610dc1565b916101a4565b11612012565b61241b612a2f565b9361243061242b60048790610cf9565b610d0f565b9142925f199361244a86612444600a61203e565b9061206e565b91612456878490611c84565b966124b760206124857f000000000000000000000000000000000000000000000000000000000000000061063c565b6370a08231906124ac6124973061178f565b926124a0610192565b95869485938493612090565b8352600483016105a3565b03915afa80156126675760066125da946124f76125a093612629996125a7965f9261262f575b506124ea6124f0916101a4565b916101a4565b101561212c565b612503335f830161164c565b6125307f000000000000000000000000000000000000000000000000000000000000000060018301612170565b61253d8560028301611cc2565b61254a8c60038301611cc2565b6125578760048301611cc2565b6125648b60058301611cc2565b612572600160078301611a0f565b61257f5f6007830161116e565b61258c896008830161219c565b61259a8d8b60098401612391565b01611ce2565b3390611d6a565b7f000000000000000000000000000000000000000000000000000000000000000090336125d33061178f565b9192612952565b879433969394979190916126176126117f1e834bc0d2cf9beb17e2dc84f53ecbb81ee00f41959e17ec4455e7ddb8bd0a1898610cdd565b98610edd565b98612620610192565b9687968761239e565b0390a390565b6124f09192506126586124ea9160203d8111612660575b61265081836113ac565b8101906120a5565b9291506124dd565b503d612646565b6120c3565b9061268093929161267b611234565b611f99565b90565b61268b611037565b506126a561269f6301ffc9a760e01b610294565b91610294565b1490565b6126bb906126b561279f565b90612a7b565b565b906126c960ff916108d4565b9181191691161790565b906126e86126e36126ef9261115f565b61116b565b82546126bd565b9055565b6126fb611037565b5061271061270a8284906116d0565b156102e1565b5f146127995761273860016127335f61272b60018690611507565b018590611699565b6126d3565b9061274161279f565b9061277e6127786127727f2f8788117e7eff1d82e926ec794901d17c78024a50270940304540a733656f0d956114fb565b92610edd565b92610edd565b92612787610192565b806127918161025b565b0390a4600190565b50505f90565b6127a7611230565b503390565b6127b4611037565b506127c08183906116d0565b5f14612848576127e75f6127e25f6127da60018690611507565b018590611699565b6126d3565b906127f061279f565b9061282d6128276128217ff6391f5c32d9c69d2a47ea670b442974b53935d1edc7fd64eb21e047a839171b956114fb565b92610edd565b92610edd565b92612836610192565b806128408161025b565b0390a4600190565b50505f90565b612856611684565b61286f61286961286461279f565b6103ea565b916103ea565b0361287657565b61289861288161279f565b5f91829163118cdaa760e01b8352600483016105a3565b0390fd5b6128a55f61125a565b6128af825f61164c565b906128e36128dd7f8be0079c531659141344cd1fd0a4f28419497f9722a3daafe3b4186f6b6457e093610edd565b91610edd565b916128ec610192565b806128f68161025b565b0390a3565b63ffffffff1690565b61291861291361291d926128fb565b612090565b610294565b90565b604090612949612950949695939661293f60608401985f8501906103f6565b60208301906103f6565b0190610403565b565b60049261298c6129a0959361299b93946129736323b872dd92949192612904565b9361297c610192565b9788956020870190815201612920565b602082018103825203836113ac565b612ad5565b565b9160206129c39294936129bc60408201965f8301906103f6565b0190610403565b565b90612a0c612a11936129fd600494936129e463a9059cbb919391612904565b926129ed610192565b96879460208601908152016129a2565b602082018103825203836113ac565b612ad5565b565b612a1c906101a4565b5f198114612a2a5760010190565b611c70565b612a37611234565b50612a42600361127e565b612a55612a4e82612a13565b6003611cc2565b90565b916020612a79929493612a7260408201965f8301906103f6565b0190610413565b565b90612a90612a8a8383906116d0565b156102e1565b612a98575050565b612ab25f92839263e2517d3f60e01b845260048401612a58565b0390fd5b90565b612acd612ac8612ad292612ab6565b610611565b6101a4565b90565b905f602091612ae2611234565b50612aeb611234565b50828151910182855af115612b7e573d5f5190612b10612b0a5f610dc1565b916101a4565b145f14612b645750612b218161063c565b3b612b34612b2e5f610dc1565b916101a4565b145b612b3d5750565b612b49612b609161063c565b5f918291635274afe760e01b8352600483016105a3565b0390fd5b612b77612b716001612ab9565b916101a4565b1415612b36565b6040513d5f823e3d90fdfea26469706673582212208f649dc22dd526a3af0a29fc5f7b042a4733ee2f5cff7faa49a12f29a792db2a64736f6c634300081e0033","linkReferences":{}},"methodIdentifiers":{"DEFAULT_ADMIN_ROLE()":"a217fddf","SPONSOR_ROLE()":"c2d79444","VALIDATOR_ROLE()":"c49baebe","completeChallenge(uint256,address)":"c814ef7f","createChallenge(uint256,bytes32,string)":"fa5d97bc","depositDAOFunds(uint256)":"a44c0561","fundChallenge(uint256,uint256)":"f56855b6","getChallengeBasicInfo(uint256)":"1cfdd9e8","getParticipants(uint256)":"c1e3bd3e","getRoleAdmin(bytes32)":"248a9ca3","grantRole(bytes32,address)":"2f2ff15d","hasRole(bytes32,address)":"91d14854","owner()":"8da5cb5b","pyusd()":"22e669d3","renounceOwnership()":"715018a6","renounceRole(bytes32,address)":"36568abe","revokeRole(bytes32,address)":"d547741f","setValidatorDAO(address)":"8c2eb17e","submitAnswer(uint256,string)":"01fa3bec","supportsInterface(bytes4)":"01ffc9a7","transferOwnership(address)":"f2fde38b","validatorDAO()":"209f3c38","verifyChallenge(uint256,bool)":"1a43ffb6"},"id":33}